:100000000C9434000C941D080C9451000C94510075
:100010000C9451000C9451000C9451000C9451001C
:100020000C9451000C9451000C9451000C9451000C
:100030000C9451000C9451000C9451000C945100FC
:100040000C94CF090C9451000C9453000C947F0035
:100050000C9451000C9451000C9451000C945100DC
:100060000C9451000C94510011241FBECFEFD8E026
:10007000DEBFCDBF14E0A0E0B1E0E0E0FAE102C0F5
:1000800005900D92AC3EB107D9F717E0ACEEB4E0A5
:1000900001C01D92AC3DB107E1F70E9441080C94EC
:1000A000FE0C0C9400001F920F920FB60F921124B9
:1000B0002F938F939F93EF93FF939091C000209184
:1000C000C600E0912E05EF5FEF7180912F05E817D4
:1000D00011F482E008C0892F8871E0932E05F0E0CA
:1000E000E45FFA4F208380933005FF91EF919F9159
:1000F0008F912F910F900FBE0F901F9018951F9208
:100100000F920FB60F9211248F939F93EF93FF934B
:1001100090912C0580912D05981769F0E0912D059F
:10012000EF5FEF71E0932D05F0E0E451FB4F80812C
:100130008093C60005C08091C1008F7D8093C1006F
:10014000FF91EF919F918F910F900FBE0F901F9095
:1001500018959C0110922C0510922D0510922E05D9
:1001600010922F0597FF04C082E08093C0003F7774
:100170003093C5002093C40088E98093C10086E0D5
:100180008093C200089590912E0580912F059817B5
:1001900019F420E031E012C0E0912F05EF5FEF711C
:1001A000E0932F05F0E0E45FFA4F308120913005B5
:1001B000922F80E0AC01430F511D9A01C9010895AF
:1001C000282F90912C059F5F9F7180912D05981786
:1001D000E1F3E92FF0E0E451FB4F208390932C05ED
:1001E0008091C10080628093C1000895CF93DF9316
:1001F000EC0103C021960E94E00088818823D1F79A
:10020000DF91CF91089580912E0520912F0590E0E8
:100210004F96821B91096FE170E00E946D0B08956B
:100220002F923F924F925F926F927F928F929F9206
:10023000AF92BF92CF92DF92EF92FF920F931F93F4
:10024000DF93CF93CDB7DEB7C354D0400FB6F89449
:10025000DEBF0FBECDBF5C018E01005F1F4FFC01F2
:1002600081819281B80142E050E00E94450CC801B2
:100270000E94F60080E091E00E94F600F501858181
:1002800090E0B8014AE050E00E94450CC8010E948D
:10029000F6007501882499249CE2492E512C612C8A
:1002A000712C8BE0282ECE01059624969FAF8EAF41
:1002B00024976E010894C11CD11C302E012F6BC0F5
:1002C00049825A826B827C822496EEADFFAD2497E0
:1002D000822D11928A95E9F7F701868187FD44C046
:1002E000C60162E071E00E94F40BF7018681803460
:1002F000D8F5C60162E071E00E94F40BF701868137
:10030000803290F5C60162E071E00E94F40BF701C3
:100310008681803148F5C60162E071E00E94F40BED
:10032000F7018681883000F5C60162E071E00E9425
:10033000F40BF70186818430B8F4C60162E071E005
:100340000E94F40BF7018681823070F4C60162E0EE
:1003500071E00E94F40BF7018681882329F4C6011D
:1003600062E071E00E94F40BF701868190E0632D5A
:10037000702F42E050E00E94450CC601632D702FA3
:100380000E94F40BC6010E94F6000894811C911C87
:100390000894E11CF11CF501858190E0881699060E
:1003A0000CF48ECF84E091E00E94F600CD5BDF4F2D
:1003B0000FB6F894DEBF0FBECDBFCF91DF911F9176
:1003C0000F91FF90EF90DF90CF90BF90AF909F90F4
:1003D0008F907F906F905F904F903F902F900895F7
:1003E0002F923F924F925F926F927F928F929F9245
:1003F000AF92BF92CF92DF92EF92FF920F931F9333
:10040000DF93CF93CDB7DEB764970FB6F894DEBF16
:100410000FBECDBF5C0186E091E00E94F600F501C1
:10042000818192818E010F5F1F4FB8014AE050E039
:100430000E94FF0BC8010E94F60084E191E00E9437
:10044000F600F501858190E0B8014AE050E00E9495
:10045000FF0BC8010E94F6006501EE24FF244CE763
:10046000442E44E4542E612C712C3AE0232E312C7E
:100470002C0E3D1E26E0822E912C8C0E9D1E2AC035
:100480004E825F8268867986F1018BE011928A95AF
:10049000E9F7C701B8014AE050E00E94FF0BC40130
:1004A000B8010E94F40BC4016AE171E00E94F40BF0
:1004B000F601858190E0B8014AE050E00E94FF0B10
:1004C000C401B8010E94F40BC4010E94F600089414
:1004D000E11CF11C0894C11CD11CF501858190E040
:1004E000E816F9066CF28DE191E00E94F600609149
:1004F000C8077091C9078091CA079091CB07A801DE
:100500002AE030E00E94200CC8010E94F60083E23D
:1005100091E00E94F6006091C8077091C907809130
:10052000CA079091CB072091310730913207409153
:10053000330750913407621B730B840B950BA80192
:100540002AE030E00E94200C8091C8079091C907F2
:10055000A091CA07B091CB078093310790933207DF
:10056000A0933307B0933407C8010E94F60084E0DB
:1005700091E00E94F60064960FB6F894DEBF0FBEBD
:10058000CDBFCF91DF911F910F91FF90EF90DF9042
:10059000CF90BF90AF909F908F907F906F905F9023
:1005A0004F903F902F900895EF92FF920F931F93DB
:1005B000CF93DF93182F062FF72EE42E2A9882E090
:1005C0000E945B05812F0E945B05202F3F2DC901F2
:1005D000EC0110E004C089910E945B051F5F1E15AD
:1005E000D0F32A9ADF91CF911F910F91FF90EF9056
:1005F0000895EF92FF920F931F93DF93CF9300D054
:1006000000D0CDB7DEB7782F79018A01DA01C901B0
:10061000A070B070613019F58C83892F9A2FAB2FA1
:10062000BB278B83CA01AA27BB279C01AD012C7174
:1006300030704070507063E0220F331F441F551F0D
:100640006A95D1F78370820F88608A8335E11695A9
:100650000795F794E7943A95D1F7E9821AC023E019
:10066000B695A795979587952A95D1F7898387E0C1
:1006700090E0A0E0B0E0E822F9220A231B2385E005
:10068000EE0CFF1C001F111F8A95D1F7EA821C8215
:100690001B82872FBE016F5F7F4F44E00E94D40210
:1006A0000F900F900F900F90CF91DF911F910F91AE
:1006B000FF90EF900895FF920F931F93182F062F2E
:1006C000F42E2A9885E00E945B05812F0E945B052D
:1006D000802F0E945B058F2D0E945B052A9A1F9137
:1006E0000F91FF900895815068E048E00E945B03FD
:1006F00008950F931F93182F062F2A9882E00E94C7
:100700005B05812F0E945B05802F0E945B052A9A62
:100710001F910F910895EF92FF920F931F93E82E70
:100720008B01FB01F5806A5F7F4F8B5F4F2D0E942D
:10073000D402F80121813281438154818E2D608160
:100740000E94F902F8018685813011F4F0E4FF2A55
:100750008E2D8C5F6F2D0E9479031F910F91FF905A
:10076000EF9008950F931F93823031F0833039F06A
:10077000813049F081E016C061E009E802C067E01D
:1007800000E912E003C064E00AEB17E08AE20E948D
:10079000790389E2602F0E94790388E2612F0E9429
:1007A000790380E01F910F9108952A9880EC0E94B0
:1007B0005B0580EA9FE00197F1F72A9A80E49CE9C3
:1007C0000197F1F708952A980E945B050E94610540
:1007D0002A9A089580EA0E94E3030895EF92FF9217
:1007E0000F931F93CF93DF93182F062FF72EE42E2E
:1007F0002A9883E00E945B05812F0E945B05202FD1
:100800003F2DC901EC0110E004C00E9461058993ED
:100810001F5F1E15D0F32A9ADF91CF911F910F9180
:10082000FF90EF900895EF92FF920F931F93DF9345
:10083000CF9300D000D0CDB7DEB77B018A01FB019A
:100840001082FA011082118212821382BE016F5F40
:100850007F4F44E00E94EE033A81232F2295269594
:100860002770898190E043E0880F991F4A95E1F74E
:10087000820F911DAC01662757FD6095762FF80118
:10088000408351836283738333FF25C0B2E0440FFA
:10089000551F661F771FBA95D1F73370430F511D4F
:1008A000611D711DBA01552744279B8180E0AA274D
:1008B00097FDA095BA2F2C81820F911DA11DB11D0E
:1008C000840F951FA61FB71F80839183A283B383D4
:1008D00081E0F70180830F900F900F900F90CF91E0
:1008E000DF911F910F91FF90EF9008951F93182FA4
:1008F0002A9883E00E945B05812F0E945B050E947D
:1009000061052A9A1F910895AF92BF92CF92DF920C
:10091000FF920F931F93DF93CF9300D00F92CDB729
:10092000DEB76C01DE011196E8EEF4E083E00190A1
:100930000D928150E1F7F60110828E010F5F1F4F7B
:1009400054E0A52EB12CAC0EBD1EF801F0808F2D09
:100950000E94760483FD05C0F394F601F08280E0E6
:1009600006C00F5F1F4F0A151B0579F782E00F9035
:100970000F900F90CF91DF911F910F91FF90DF901B
:10098000CF90BF90AF9008950F931F93CF93DF93B5
:10099000082FEB01AB014F5F5F4F0E941304802FC4
:1009A00081500E947604182F802F8C5F0E9476045D
:1009B0008D8313FF03C081E08E8701C01E864D81A9
:1009C0004F704D832696802F8B5FBE010E94EE03F1
:1009D000DF91CF911F910F9108951F93182F8FE0F2
:1009E00060EE412F0E945B038FE00E94760490E04E
:1009F000807E811391E0892F1F9108950F931F939B
:100A0000182F2A9A0E94D50380E80E94ED04082F2F
:100A1000813009F43FC0812F0E94B203082F882340
:100A2000C9F580E664E60E94790380E760E60E94EB
:100A3000790380E260E00E94790381E260E00E9435
:100A4000790382E260E00E94790383E260E00E9421
:100A5000790384E260E00E94790385E260E00E940D
:100A6000790386E260E00E94790387E260E00E94F9
:100A700079038CE060E00E9479038DE060E00E94E1
:100A800079038BE263E00E9479038FE060EE40E03F
:100A90000E945B03802F1F910F91089584B18C6297
:100AA00084B924988CB580618CBD8CB580648CBD74
:100AB00081E08DBD08958EBD0DB407FEFDCF8EB5CE
:100AC00008951EBC0DB407FEFDCF8EB50895529853
:100AD0005A9AE9E6F0E0808182608083E89A84E0B7
:100AE000809335070895AC019091370780913607C0
:100AF000981721F484E08093350708958091360794
:100B00008F5F8F7180933607E82FF0E084E0EE0F5F
:100B1000FF1F8A95E1F7DA01EF5CFA4F80E101905F
:100B20000D928150E1F708950E94EA0390E08370EE
:100B30009070892B11F484E0089583E00895CF9399
:100B4000DF93EC010E94EA0380FF07C081E6BE014B
:100B50000E94C4048CE261E00AC081FD02C084E00E
:100B60000AC081E7BE010E94C4048CE262E040E05A
:100B70000E945B0380E0DF91CF9108950F931F9354
:100B80000FEF1EC0909137079F5F9F7180913607CE
:100B9000981739F40093350780913607809337070B
:100BA0000FC090933707892F90E024E0880F991F9A
:100BB0002A95E1F78F5C9A4F0E949F0510933507A5
:100BC0000E949405182F8330E9F280E01F910F9165
:100BD0000895CF92DF92EF92FF920F931F93DF93CE
:100BE000CF930F92CDB7DEB77C0100E010E06E012D
:100BF0000894C11CD11CC6010E9484040F5F1F4FC2
:100C000090E00536110508F091E0823021F40536B8
:100C1000110589F70BC0992349F48981B7010E9416
:100C20008B0389810E94730380E001C082E00F90F2
:100C3000CF91DF911F910F91FF90EF90DF90CF90B8
:100C4000089510923707109236070E94FE04811112
:100C500081E00895EF92FF920F931F938CE2E82EAC
:100C600081E0F82EC7010E94F6000EE211E0C801F3
:100C70000E94F60085E591E00E94F60083E691E08F
:100C80000E94F60084E891E00E94F60080EA91E07C
:100C90000E94F60081EC91E00E94F600C8010E94DB
:100CA000F600C7010E94F6001F910F91FF90EF9090
:100CB0000895EF92FF920F931F939CE2E92E91E02B
:100CC000F92EC7010E94F6000EE211E0C8010E9451
:100CD000F6008BED91E00E94F60087EE91E00E9415
:100CE000F60084E092E00E94F6008EE192E00E941D
:100CF000F60088E392E00E94F60081EC91E00E9409
:100D0000F600C8010E94F600C7010E94F6001F917C
:100D10000F91FF90EF900895EF92FF920F931F9322
:100D20002CE2E22E21E0F22EC7010E94F6000EE234
:100D300011E0C8010E94F60084E592E00E94F600EE
:100D400080E692E00E94F60080E792E00E94F600C2
:100D5000C8010E94F600C7010E94F6008EE792E0EB
:100D60000E94F6001F910F91FF90EF9008950E944E
:100D70008C0608956F927F928F929F92AF92BF924E
:100D8000DF92EF92FF920F931F93DF93CF93CDB734
:100D9000DEB72B970FB6F894DEBF0FBECDBF7C0138
:100DA0005E010894A11CB11C850140E4642E4FE152
:100DB000742E3BE0832E912C8C0E9D1E17C00E943A
:100DC000C300F80181938F01C3010197F1F7E81582
:100DD000F90561F48CE291E00E94F60083EA92E06A
:100DE0000E94F60080E1F701808313C1D02EDA184B
:100DF0000E940301892B19F75E010894A11CB11C04
:100E0000F501ED0DF11D02C01082D3948AE08D151D
:100E1000D8F7C50163EB72E00E94E10B892B09F45E
:100E2000E9C0198110531A3008F0CEC0F701808153
:100E300090E0B50140E150E00E94450CC5010E94E0
:100E4000F600F701808190E0807F907080329105FC
:100E500059F18034910509F44EC0409709F09CC0C7
:100E6000113019F01230A9F40AC080E2F701808332
:100E70008CE291E00E94F60088EB92E037C080E4BB
:100E8000F70180838CE291E00E94F60081ED92E010
:100E90007EC08CE291E00E94F60088EE92E00E9413
:100EA000F6000E948C06B1C0113031F0113008F408
:100EB0005EC01230A9F40AC081E2F70180838CE29F
:100EC00091E00E94F6008AEF92E04CC082E2F701C6
:100ED00080838CE291E00E94F60082E293E042C0BF
:100EE0008CE291E00E94F60088EE92E00E94F6000B
:100EF0000E942A068AC01430B1F0153028F411235C
:100F0000B1F11330F1F505C01530B9F01630C9F55F
:100F10001FC082E4F70180838CE291E00E94F6001A
:100F200081E593E01FC083E4F70180838CE291E0C8
:100F30000E94F6008FE693E066C0F701808184642A
:100F400080838CE291E00E94F6008AE893E00AC078
:100F5000F7018081886480838CE291E00E94F60032
:100F600085EA93E00E94F60080E193E04CC080E1C6
:100F7000F70180838CE291E00E94F6008CE393E01D
:100F800033C08CE291E00E94F60088EE92E00E946D
:100F9000F6000E94590639C0F70110828CE291E0F8
:100FA0000E94F60082EC93E00E94F600F701808137
:100FB00090E0B50140E150E00E94450CC5010E945F
:100FC000F60087EE93E01FC0C5016CEF73E00E944E
:100FD000E10B892B91F480E1F70180838CE291E0B1
:100FE0000E94F6008EEF93E00E94F6008CE291E002
:100FF0000E94F6000E948C060CC08CE291E00E94D8
:10100000F60089E094E00E94F6008CE291E00E94F4
:10101000F6002B960FB6F894DEBF0FBECDBFCF9172
:10102000DF911F910F91FF90EF90DF90BF90AF90F5
:101030009F908F907F906F9008951F920F920FB6A0
:101040000F9211242F933F934F935F936F937F934E
:101050008F939F93AF93BF93EF93FF930E94BE052F
:10106000FF91EF91BF91AF919F918F917F916F9180
:101070005F914F913F912F910F900FBE0F901F9056
:1010800018952F923F924F925F926F927F928F921C
:101090009F92AF92BF92CF92DF92EF92FF920F9307
:1010A0001F93DF93CF93CDB7DEB7AB970FB6F8940E
:1010B000DEBF0FBECDBF80E190E80E94A90078940A
:1010C0008CE394E00E94F6000E944E058FE494E0C9
:1010D0000E94F60083E00E94210680E694E00E94D0
:1010E000F6000E9467050E94FA0981E794E00E94D9
:1010F000F60088E994E00E94F60080E18093DB0727
:101100000E94B7062090C8073090C9074090C807D2
:101110005090C9078EEC9FEF480E591E0E94120A8C
:101120000E94380B00E010E0662477244AE1A42EE8
:10113000B12CAC0EBD1E4E010894811C911CDE0129
:101140001F96BBA7AAA70E940301892B21F08BED54
:1011500097E00E94BA068091DB078134E9F182347E
:1011600038F4813281F08232C9F0882341F0E3C043
:10117000823409F445C0833409F0DDC0D7C00E9431
:10118000B706B0E1D6C0809135078330A9F4C50118
:101190000E947305882309F0CEC01AC080913507DC
:1011A000833051F4C5010E947305882309F0C3C040
:1011B000C5010E941001BFC0809135078F3F09F023
:1011C000BAC08FEB94E00E94F600C5010E9473053F
:1011D000C5010E94F001AFC081E197E0A0E0B0E05E
:1011E0008B8F9C8FAD8FBE8F91E098A71F8EC5010E
:1011F0000E94E905A0E1A093DB070E94B7069BC00F
:101200008091C8079091C90782199309895E93401C
:1012100008F491C02090C8073090C907680108946D
:10122000C11CD11CE0E0CE16E8E0DE0610F0CC24B4
:10123000DD24C801A0E0B0E08B8F9C8FAD8FBE8F06
:101240000E94D10B6FEF7FE00E946D0B6F5F6F8F7D
:1012500084EC94E00E94F6008B8D9C8DB4014AE0F2
:1012600050E00E94FF0BC4010E94F60086ED94E05E
:101270000E94F6008F8D90E0B4014AE050E00E9499
:10128000FF0BC4010E94F60030E2E32EF12CEC0EBD
:10129000FD1E00E010E03BC00E94D10B880F892F9B
:1012A000881F990BD7018C938CE790E2A4E4B0E0FF
:1012B0008B879C87AD87BE87AAA5BBA5EBE01D9257
:1012C000EA95E9F7C801B4014AE050E00E94FF0B3B
:1012D000CE010B96B4010E94F40BCE010B966FED7C
:1012E00074E00E94F40BD7018D917D0190E0B40170
:1012F0004AE050E00E94FF0BCE010B96B4010E9421
:10130000F40BCE010B960E94F6000F5F1F4F8F8DDE
:1013100090E0081719070CF4BFCF82EE94E00E940A
:10132000F600C5010E94E905860105C00E94080B70
:10133000B0E4B093DB078091DB0782FF0FC08091A0
:10134000C8079091C90782199309895E934030F0CC
:101350002090C8073090C9070E94080B8091DB07D6
:1013600083FFF1CE8091C8079091C9078419950930
:10137000893C910508F4E7CE4090C8075090C90712
:10138000C3010E944F0B0894611C711CFBEF6F1688
:10139000710410F0662477240E94540BD4CE1F925F
:1013A0000F920FB60F9211242F938F939F938091DA
:1013B000CA078F5F8093CA0786E086BD8091C80701
:1013C0009091C90701969093C9078093C8078091AF
:1013D000C8079091C9078E55914021F48BB193E0D5
:1013E00089278BB99F918F912F910F900FBE0F90EE
:1013F0001F90189593E095BD86E086BDA89AEEE60D
:10140000F0E08081816080838AB183608AB9599AD3
:101410008BB189278BB91092C9071092C807109217
:10142000CA07089530E1E8E3F7E0DF01832F1D925A
:101430008A95E9F780E296E0A0E0B0E08093390772
:1014400090933A07A0933B07B0933C0748E0409342
:101450003D0785E480933E078CE480933F0799E441
:101460009093400784E58093410788E48093420786
:10147000909343078FE4809344072EE4209345071D
:101480007096DF01832F1D928A95E9F781E296E03D
:10149000A0E0B0E08093490790934A07A0934B07E0
:1014A000B0934C0740934D0792E390934E0783E42B
:1014B00080934F072093500786E4809351079093C1
:1014C00052078EE2809353079093540786E38093EC
:1014D00055077096DF01832F1D928A95E9F782E206
:1014E00096E0A0E0B0E08093590790935A07A0934C
:1014F0005B07B0935C0757E050935D0781E08093F2
:101500005E0780E28093610784E18093620780E454
:10151000809364077096DF01832F1D928A95E9F707
:1015200083E296E0A0E0B0E08093690790936A07B9
:10153000A0936B07B0936C0726E020936D07E8E754
:10154000F7E0DF01832F1D928A95E9F784E296E0A8
:10155000A0E0B0E08093790790937A07A0937B078F
:10156000B0937C0720937D07E8E8F7E0DF01832F45
:101570001D928A95E9F785E296E0A0E0B0E08093BD
:10158000890790938A07A0938B07B0938C074093A9
:101590008D07E8E9F7E0DF01832F1D928A95E9F7CF
:1015A00086E296E0A0E0B0E08093990790939A07D6
:1015B000A0939B07B0939C0750939D07E8EAF7E040
:1015C000DF01832F1D928A95E9F787E296E0A0E07C
:1015D000B0E08093A9079093AA07A093AB07B093BC
:1015E000AC072093AD07E8EBF7E0DF011D923A95D9
:1015F000E9F788E296E0A0E0B0E08093B907909325
:10160000BA07A093BB07B093BC072093BD0708950A
:101610000F931F93CF93DF93C8E3D7E000EA1FE057
:10162000CE010E94E905C8010197F1F7609687E0B5
:10163000C83CD807A9F7FE01BA9780818F5F8083E5
:10164000853610F010929E0780916F078F5F809310
:101650006F0780917F078F5F80937F078091AE0730
:101660008F5F8093AE07DF91CF911F910F91089507
:10167000EBECF7E080E1DF011D928A95E9F780E26B
:1016800094E0A0E0B0E08093CC079093CD07A093C6
:10169000CE07B093CF0788E08093D007089590934A
:1016A000D1078093D20708958BEC97E00E94E9055B
:1016B0000895AA1BBB1B51E107C0AA1FBB1FA61799
:1016C000B70710F0A61BB70B881F991F5A95A9F7EB
:1016D00080959095BC01CD01089597FB092E0726B2
:1016E0000AD077FD04D0E5DF06D000201AF470950B
:1016F00061957F4F0895F6F7909581959F4F0895D6
:10170000A0E0B0E0E6E8FBE00C94CF0CEC01A88090
:10171000B980CA80DB80A114B104C104D10441F4B2
:1017200084E2A82E89EDB82E8BE5C82E87E0D82E4E
:10173000C601B5012DE133EF41E050E00E94AC0C51
:1017400027EA31E440E050E00E946B0C7B018C0101
:10175000C601B5012DE133EF41E050E00E94AC0C31
:10176000CA01B9012CEE34EF4FEF5FEF0E946B0C12
:101770006E0D7F1D801F911F97FF04C06150704048
:1017800080409048688379838A839B839B013F775D
:10179000C901CDB7DEB7EAE00C94EB0C0E94800BD8
:1017A000089584EE94E00E94800B0895A0E0B0E0DC
:1017B0008093E4049093E504A093E604B093E704D7
:1017C0000895FB01DC018D9181341CF08B350CF404
:1017D000805E619161341CF06B350CF4605E861B99
:1017E000611189F3990B0895FB01DC010D90002034
:1017F000E9F7119701900D920020E1F70895FB01A0
:101800009F01E8944230C4F04532B4F44A3029F4E0
:1018100097FB1EF4909581959F4F642F77270E9428
:10182000590B805D8A330CF0895D8193CB01009761
:10183000A1F716F45DE251931082C9010C945B0C80
:10184000FA01CF93FF93EF932230CCF02532BCF412
:10185000C22F2C2F332744275527FF93EF930E9445
:101860008A0CEF91FF91605D6A330CF0695D6193C2
:10187000B901CA01605070408040904051F7108219
:101880008F919F91CF910C945B0CFB019F01423093
:1018900074F0453264F4642F77270E94590B805D01
:1018A0008A330CF0895D8193CB010097A1F71082F8
:1018B000C9010C945B0CDC01FC01672F719177234B
:1018C000E1F7329704C07C916D9370836291AE17FB
:1018D000BF07C8F30895629FD001739FF001829FF4
:1018E000E00DF11D649FE00DF11D929FF00D839FAF
:1018F000F00D749FF00D659FF00D9927729FB00D4C
:10190000E11DF91F639FB00DE11DF91FBD01CF015E
:1019100011240895A1E21A2EAA1BBB1BFD010DC0C4
:10192000AA1FBB1FEE1FFF1FA217B307E407F5078F
:1019300020F0A21BB30BE40BF50B661F771F881F6B
:10194000991F1A9469F760957095809590959B0101
:10195000AC01BD01CF01089597FB092E05260ED0DD
:1019600057FD04D0D7DF0AD0001C38F450954095BD
:10197000309521953F4F4F4F5F4F0895F6F7909563
:101980008095709561957F4F8F4F9F4F08952F924F
:101990003F924F925F926F927F928F929F92AF92FF
:1019A000BF92CF92DF92EF92FF920F931F93CF934C
:1019B000DF93CDB7DEB7CA1BDB0B0FB6F894DEBFE3
:1019C0000FBECDBF09942A88398848885F846E8409
:1019D0007D848C849B84AA84B984C884DF80EE8053
:1019E000FD800C811B81AA81B981CE0FD11D0FB65C
:1019F000F894DEBF0FBECDBFED010895F894FFCF80
:101A00002C0030000A0043414E204D73673A2049B4
:101A1000443D2000207C4C3D20003D2000207C7473
:101A20003D2000207C64656C543D20000A002D2D73
:101A30002D2D2D2D2D2D2D2D2D2D2D2D2D2D2D2DD6
:101A40002D2D2D2D2D2D2D2D2D2D2D2D2D2D2D2DC6
:101A50002D2D2D0A004C697374656E204D656E75D1
:101A60003A0A00313A204C697374656E20416C6CFF
:101A70002043414E2064617461205265616461625B
:101A80006C650A00323A204C697374656E20416CB3
:101A90006C2043414E2064617461205261770A00DA
:101AA000333A204C697374656E20666F72205370F0
:101AB000656369666965642043414E204944200A94
:101AC00000303A20476F204261636B20746F204DD5
:101AD00061696E204D656E75200A0053656E642045
:101AE0004D656E753A0A00333A2053656E64205294
:101AF000616E646F6D2043414E204D657373616765
:101B000065730A00343A2053656E6420424D5320B9
:101B100043414E204D657373616765730A00353A22
:101B2000204C6F6F7020424D532043414E204D6535
:101B30007373616765730A00363A204C6F6F7020CB
:101B400053706565642043414E204D657373616732
:101B500065730A004D61696E204D656E753A0A0025
:101B6000313A204C697374656E204D656E750A00BC
:101B7000323A2053656E64204D656E750A005479C3
:101B80007065202768656C702720746F2073686FFC
:101B9000772074686973206D656E7520616761696F
:101BA0006E0A00496E70757420546F6F204C6F6E12
:101BB00067210068656C7000456E746572696E67B8
:101BC000204C697374656E205375626D656E750A7D
:101BD00000456E746572696E672053656E642053AC
:101BE00075626D656E750A00556E6B6E6F776E204F
:101BF000636F6D6D616E64210A00456E7465726974
:101C00006E67204C697374656E204D6F64650A00C1
:101C1000547970652027632720746F206578697474
:101C20000A00456E746572696E67204C697374654D
:101C30006E204D6F6465205241570A004261636B0C
:101C400020746F204D61696E204D656E752E2E0AD1
:101C50000053656E64696E672052616E646F6D201B
:101C600043414E204D65737361676573200A0053CD
:101C7000656E64696E6720424D532043414E204D8E
:101C800065737361676573200A004C6F6F70696ECE
:101C90006720424D532043414E204D657373616769
:101CA0006573200A004C6F6F70696E672053706512
:101CB00065642043414E204D6573736167657320F1
:101CC0000A00556E6B6E6F776E20737461746521B8
:101CD0002050726F6772616D2043726173683F209C
:101CE0003A282828280A000A417474656D707469BE
:101CF0006E67207265626F6F74200A006300436133
:101D00006E63656C6C65640A00536F72727920496A
:101D100020646964206E6F7420756E6465727374DC
:101D2000616E6420746861742C20706C65617365E9
:101D30002074727920616761696E0A0055534152BF
:101D40005420496E697469616C697365640A005353
:101D5000504920496E697469616C697365640A0051
:101D600043414E20496E697469616C697365640A08
:101D7000000A48656C6C6F212043414E2054657306
:101D800074206E6F64652068617320626F6F746584
:101D9000642121203A440A002D2D2D2D2D2D2D2D8D
:101DA0002D2D2D2D2D2D2D2D2D2D2D2D2D2D2D2D63
:101DB0002D2D2D2D2D2D2D2D2D2D2D2D2D0A00745C
:101DC0006861740043414E204D6573736167653AE5
:101DD0002049443D2000207C204C656E3D20003D84
:0C1DE00020000A0001000000304050000C
:00000001FF
