S017000042617369632053504920434F6D6D732E7372656320
S11300000C9434000C943E000C943E000C943E007E
S11300100C943E000C943E000C943E000C943E0064
S11300200C943E000C943E000C943E000C943E0054
S11300300C943E000C943E000C943E000C943E0044
S11300400C943E000C943E000C943E000C943E0034
S11300500C943E000C943E000C943E000C943E0024
S11300600C943E000C943E0011241FBECFEFD8E048
S1130070DEBFCDBF0E9461010C94D6010C94000038
S113008084B1886284B985B1877C85B9229A2A9A19
S113009080E58CBD81E08DBD08958EBD0DB407FE55
S11300A0FDCF8EB50895CF93DF93D82FC62F2A980E
S11300B082E00E944D008D2F0E944D008C2F0E94E3
S11300C04D002A9ADF91CF9108951F93CF93DF9328
S11300D0182FD62FC42F2A9885E00E944D00812F17
S11300E00E944D008D2F0E944D008C2F0E944D00C8
S11300F02A9ADF91CF911F910895CF932A9880EB8C
S11301000E944D008FEF0E944D00C82F8FEF0E9478
S11301104D002A9A8C2FCF910895CF92DF92EF92BF
S1130120FF920F931F93CF93DF931F92CDB7DEB748
S11301306C010E947D0089832998898186FF05C00E
S11301402A9880E90E944D0008C0898188230CF018
S113015054C02A9884E90E944D008FEF0E944D00FC
S113016098E0899F80011124F601118300838FEFA9
S11301700E944D00829586958770082BF6011183A5
S113018000838FEF0E944D008FEF0E944D008FEF90
S11301900E944D008F70F6018383882399F08601B5
S11301A00C5F1F4F81507601F5E0EF0EF11CE80E55
S11301B0F11C8FEF0E944D00F80181938F01EE1521
S11301C0FF05B9F72A9A898183FF04C081E0F6010B
S11301D0828302C0F6011282898186FF06C040E054
S11301E061E08CE20E94650005C040E062E08CE2C0
S11301F00E9465008981877001C08FEF0F90DF91A5
S1130200CF911F910F91FF90EF90DF90CF900895C1
S11302100E9440002A9880EC0E944D008FE99FE0E4
S11302200197F1F700C000002A9A8FE39CE9019737
S1130230F1F700C0000067E08AE20E94530060E921
S113024089E20E94530062E088E20E94530063E066
S11302508BE20E94530060E680E60E94530060E651
S113026080E70E94530060E080E20E94530060E057
S113027081E20E94530060E082E20E94530060E049
S113028083E20E94530060E084E20E94530060E035
S113029085E20E94530060E086E20E94530060E021
S11302A087E20E94530060E08CE00E94530060E00B
S11302B08DE00E94530040E060EE8FE00E946500F4
S11302C00895CF93DF93CDB7DEB72C970FB6F8948C
S11302D0DEBF0FBECDBF219A0E9440000E940801DC
S11302E080E090E000E010E00F2EF4E1EF2EF02D1E
S11302F0F12C18C0299A2FEF30E742E0215030400A
S11303004040E1F700C0000029982FEF30E742E0B9
S1130310215030404040E1F700C00000019602C087
S1130320802F912F181619062CF7219A299A8FEFEE
S113033091EE24E0815090402040E1F700C000009D
S113034029983FEF40E782E0315040408040E1F798
S113035000C00000299ACE0101960E948D008F3FB3
S113036029F38D818430F1F48E81833FD9F48E2D6D
S11303709F2D219A299A2FEF33EC49E021503040E8
S11303804040E1F700C0000029982FEF33EC49E02A
S1130390215030404040E1F700C000000197009731
S11303A041F7BECF299A802F912FBCCFF894FFCF6D
S9030000FC
